{
  "contractName": "Verity",
  "abi": [
    {
      "inputs": [],
      "payable": false,
      "stateMutability": "nonpayable",
      "type": "constructor"
    },
    {
      "anonymous": false,
      "inputs": [
        {
          "indexed": false,
          "internalType": "string",
          "name": "hash",
          "type": "string"
        }
      ],
      "name": "hashAdded",
      "type": "event"
    },
    {
      "anonymous": false,
      "inputs": [
        {
          "indexed": false,
          "internalType": "bool",
          "name": "valid",
          "type": "bool"
        }
      ],
      "name": "hashValid",
      "type": "event"
    },
    {
      "constant": true,
      "inputs": [],
      "name": "docHash",
      "outputs": [
        {
          "internalType": "string",
          "name": "",
          "type": "string"
        }
      ],
      "payable": false,
      "stateMutability": "view",
      "type": "function"
    },
    {
      "constant": true,
      "inputs": [],
      "name": "institution",
      "outputs": [
        {
          "internalType": "address",
          "name": "",
          "type": "address"
        }
      ],
      "payable": false,
      "stateMutability": "view",
      "type": "function"
    },
    {
      "constant": true,
      "inputs": [],
      "name": "owner",
      "outputs": [
        {
          "internalType": "address payable",
          "name": "",
          "type": "address"
        }
      ],
      "payable": false,
      "stateMutability": "view",
      "type": "function"
    },
    {
      "constant": true,
      "inputs": [],
      "name": "seller",
      "outputs": [
        {
          "internalType": "address payable",
          "name": "",
          "type": "address"
        }
      ],
      "payable": false,
      "stateMutability": "view",
      "type": "function"
    },
    {
      "constant": true,
      "inputs": [],
      "name": "validity",
      "outputs": [
        {
          "internalType": "bool",
          "name": "",
          "type": "bool"
        }
      ],
      "payable": false,
      "stateMutability": "view",
      "type": "function"
    },
    {
      "constant": false,
      "inputs": [
        {
          "internalType": "address payable",
          "name": "_seller",
          "type": "address"
        },
        {
          "internalType": "address",
          "name": "_institution",
          "type": "address"
        }
      ],
      "name": "deploy",
      "outputs": [],
      "payable": true,
      "stateMutability": "payable",
      "type": "function"
    },
    {
      "constant": false,
      "inputs": [
        {
          "internalType": "string",
          "name": "_docHash",
          "type": "string"
        }
      ],
      "name": "setHash",
      "outputs": [],
      "payable": false,
      "stateMutability": "nonpayable",
      "type": "function"
    },
    {
      "constant": false,
      "inputs": [
        {
          "internalType": "bool",
          "name": "_validity",
          "type": "bool"
        }
      ],
      "name": "validate",
      "outputs": [
        {
          "internalType": "bool",
          "name": "",
          "type": "bool"
        }
      ],
      "payable": false,
      "stateMutability": "nonpayable",
      "type": "function"
    },
    {
      "constant": false,
      "inputs": [],
      "name": "proceedTransfer",
      "outputs": [],
      "payable": true,
      "stateMutability": "payable",
      "type": "function"
    },
    {
      "constant": false,
      "inputs": [
        {
          "internalType": "address payable",
          "name": "_seller",
          "type": "address"
        }
      ],
      "name": "setSeller",
      "outputs": [],
      "payable": false,
      "stateMutability": "nonpayable",
      "type": "function"
    },
    {
      "constant": false,
      "inputs": [
        {
          "internalType": "address",
          "name": "_institution",
          "type": "address"
        }
      ],
      "name": "setInstitution",
      "outputs": [],
      "payable": false,
      "stateMutability": "nonpayable",
      "type": "function"
    }
  ],
  "bytecode": "0x60806040526000600560006101000a81548160ff02191690831515021790555034801561002b57600080fd5b5033600260006101000a81548173ffffffffffffffffffffffffffffffffffffffff021916908373ffffffffffffffffffffffffffffffffffffffff160217905550610e098061007c6000396000f3fe60806040526004361061009c5760003560e01c8063545e7c6111610064578063545e7c61146102d457806361a7c6ef146103385780638da5cb5b14610342578063a13c424c14610399578063d1384eb6146103ea578063e99d2866146104415761009c565b806308551a53146100a15780631ed83fd4146100f85780632a5b68fd146101c05780633d6df0d5146102155780633e98d1fb146102a5575b600080fd5b3480156100ad57600080fd5b506100b6610492565b604051808273ffffffffffffffffffffffffffffffffffffffff1673ffffffffffffffffffffffffffffffffffffffff16815260200191505060405180910390f35b34801561010457600080fd5b506101be6004803603602081101561011b57600080fd5b810190808035906020019064010000000081111561013857600080fd5b82018360208201111561014a57600080fd5b8035906020019184600183028401116401000000008311171561016c57600080fd5b91908080601f016020809104026020016040519081016040528093929190818152602001838380828437600081840152601f19601f8201169050808301925050505050505091929192905050506104b7565b005b3480156101cc57600080fd5b506101fb600480360360208110156101e357600080fd5b8101908080351515906020019092919050505061067c565b604051808215151515815260200191505060405180910390f35b34801561022157600080fd5b5061022a6108de565b6040518080602001828103825283818151815260200191508051906020019080838360005b8381101561026a57808201518184015260208101905061024f565b50505050905090810190601f1680156102975780820380516001836020036101000a031916815260200191505b509250505060405180910390f35b3480156102b157600080fd5b506102ba61097c565b604051808215151515815260200191505060405180910390f35b610336600480360360408110156102ea57600080fd5b81019080803573ffffffffffffffffffffffffffffffffffffffff169060200190929190803573ffffffffffffffffffffffffffffffffffffffff16906020019092919050505061098f565b005b610340610a1b565b005b34801561034e57600080fd5b50610357610ba8565b604051808273ffffffffffffffffffffffffffffffffffffffff1673ffffffffffffffffffffffffffffffffffffffff16815260200191505060405180910390f35b3480156103a557600080fd5b506103e8600480360360208110156103bc57600080fd5b81019080803573ffffffffffffffffffffffffffffffffffffffff169060200190929190505050610bce565b005b3480156103f657600080fd5b506103ff610c6c565b604051808273ffffffffffffffffffffffffffffffffffffffff1673ffffffffffffffffffffffffffffffffffffffff16815260200191505060405180910390f35b34801561044d57600080fd5b506104906004803603602081101561046457600080fd5b81019080803573ffffffffffffffffffffffffffffffffffffffff169060200190929190505050610c92565b005b6000809054906101000a900473ffffffffffffffffffffffffffffffffffffffff1681565b6000809054906101000a900473ffffffffffffffffffffffffffffffffffffffff1673ffffffffffffffffffffffffffffffffffffffff163373ffffffffffffffffffffffffffffffffffffffff161461051057600080fd5b600073ffffffffffffffffffffffffffffffffffffffff166000809054906101000a900473ffffffffffffffffffffffffffffffffffffffff1673ffffffffffffffffffffffffffffffffffffffff16141580156105bd5750600073ffffffffffffffffffffffffffffffffffffffff16600160009054906101000a900473ffffffffffffffffffffffffffffffffffffffff1673ffffffffffffffffffffffffffffffffffffffff1614155b6105c657600080fd5b80600490805190602001906105dc929190610d2f565b507f30d04c0778395e539deb77ef9dce477c1aebdce2758f581bf3763eae9e1e3f30816040518080602001828103825283818151815260200191508051906020019080838360005b8381101561063f578082015181840152602081019050610624565b50505050905090810190601f16801561066c5780820380516001836020036101000a031916815260200191505b509250505060405180910390a150565b6000600160009054906101000a900473ffffffffffffffffffffffffffffffffffffffff1673ffffffffffffffffffffffffffffffffffffffff163373ffffffffffffffffffffffffffffffffffffffff16146106d857600080fd5b600073ffffffffffffffffffffffffffffffffffffffff166000809054906101000a900473ffffffffffffffffffffffffffffffffffffffff1673ffffffffffffffffffffffffffffffffffffffff16141580156107855750600073ffffffffffffffffffffffffffffffffffffffff16600160009054906101000a900473ffffffffffffffffffffffffffffffffffffffff1673ffffffffffffffffffffffffffffffffffffffff1614155b61078e57600080fd5b7f4ac7341a89fdf6f30a52efe918b11861a18b58ece239a9248e9056cbd2c8071982600560006101000a81548160ff0219169083151502179055604051808215151515815260200191505060405180910390a1600560009054906101000a900460ff1615610865576000809054906101000a900473ffffffffffffffffffffffffffffffffffffffff1673ffffffffffffffffffffffffffffffffffffffff166108fc6003549081150290604051600060405180830381858888f1935050505015801561085f573d6000803e3d6000fd5b506108d1565b600260009054906101000a900473ffffffffffffffffffffffffffffffffffffffff1673ffffffffffffffffffffffffffffffffffffffff166108fc6003549081150290604051600060405180830381858888f193505050501580156108cf573d6000803e3d6000fd5b505b6000600381905550919050565b60048054600181600116156101000203166002900480601f0160208091040260200160405190810160405280929190818152602001828054600181600116156101000203166002900480156109745780601f1061094957610100808354040283529160200191610974565b820191906000526020600020905b81548152906001019060200180831161095757829003601f168201915b505050505081565b600560009054906101000a900460ff1681565b816000806101000a81548173ffffffffffffffffffffffffffffffffffffffff021916908373ffffffffffffffffffffffffffffffffffffffff16021790555080600160006101000a81548173ffffffffffffffffffffffffffffffffffffffff021916908373ffffffffffffffffffffffffffffffffffffffff160217905550346003819055505050565b600260009054906101000a900473ffffffffffffffffffffffffffffffffffffffff1673ffffffffffffffffffffffffffffffffffffffff163373ffffffffffffffffffffffffffffffffffffffff1614610a7557600080fd5b600560009054906101000a900460ff1615610af9576000809054906101000a900473ffffffffffffffffffffffffffffffffffffffff1673ffffffffffffffffffffffffffffffffffffffff166108fc6003549081150290604051600060405180830381858888f19350505050158015610af3573d6000803e3d6000fd5b50610b65565b600260009054906101000a900473ffffffffffffffffffffffffffffffffffffffff1673ffffffffffffffffffffffffffffffffffffffff166108fc6003549081150290604051600060405180830381858888f19350505050158015610b63573d6000803e3d6000fd5b505b6000600381905550600260009054906101000a900473ffffffffffffffffffffffffffffffffffffffff1673ffffffffffffffffffffffffffffffffffffffff16ff5b600260009054906101000a900473ffffffffffffffffffffffffffffffffffffffff1681565b600260009054906101000a900473ffffffffffffffffffffffffffffffffffffffff1673ffffffffffffffffffffffffffffffffffffffff163373ffffffffffffffffffffffffffffffffffffffff1614610c2857600080fd5b80600160006101000a81548173ffffffffffffffffffffffffffffffffffffffff021916908373ffffffffffffffffffffffffffffffffffffffff16021790555050565b600160009054906101000a900473ffffffffffffffffffffffffffffffffffffffff1681565b600260009054906101000a900473ffffffffffffffffffffffffffffffffffffffff1673ffffffffffffffffffffffffffffffffffffffff163373ffffffffffffffffffffffffffffffffffffffff1614610cec57600080fd5b806000806101000a81548173ffffffffffffffffffffffffffffffffffffffff021916908373ffffffffffffffffffffffffffffffffffffffff16021790555050565b828054600181600116156101000203166002900490600052602060002090601f016020900481019282601f10610d7057805160ff1916838001178555610d9e565b82800160010185558215610d9e579182015b82811115610d9d578251825591602001919060010190610d82565b5b509050610dab9190610daf565b5090565b610dd191905b80821115610dcd576000816000905550600101610db5565b5090565b9056fea265627a7a723158205d343889b411455e1fef77a5a4d359cf8e8d33031d00cbcfdd0226bab846819c64736f6c634300050c0032",
  "source": "pragma solidity ^0.5.1;\r\n\r\ncontract Verity {\r\n    address payable public seller;\r\n    address public institution;\r\n    address payable public owner;\r\n    \r\n    uint private sum; \r\n\r\n    string public docHash;\r\n    bool public validity = false;\r\n    \r\n    event hashAdded(string hash);\r\n    event hashValid(bool valid);\r\n    \r\n    modifier onlyOwner() {\r\n        require(msg.sender == owner);\r\n        _; \r\n    }\r\n    modifier onlySeller() {\r\n        require(msg.sender == seller);\r\n        _; \r\n    }\r\n    modifier onlyInstitution() {\r\n        require(msg.sender == institution);\r\n        _; \r\n    }\r\n    \r\n    modifier filledAddress() {\r\n        require(seller!=address(0) &&\r\n                institution!= address(0));\r\n        _;\r\n    }\r\n    \r\n    modifier aptHash(){ \r\n      _; \r\n    } \r\n    \r\n    constructor() public {\r\n        owner = msg.sender;\r\n    }\r\n\r\n    function deploy(address payable _seller,  address _institution) public payable{\r\n        seller = _seller;\r\n        institution = _institution;\r\n        sum = msg.value; \r\n    }\r\n    \r\n    // Allows seller to set hash of the document imported to IPFS and emit\r\n    function setHash(string memory _docHash) public onlySeller filledAddress{\r\n        docHash = _docHash; \r\n        emit hashAdded(_docHash);\r\n    }\r\n    \r\n    // Institution validates the hash (pointing to the document) and emit\r\n    function validate(bool _validity) public onlyInstitution filledAddress aptHash returns(bool){\r\n        emit hashValid(validity = _validity);\r\n        if(validity){\r\n            seller.transfer(sum);\r\n        } else {\r\n            owner.transfer(sum); \r\n        }\r\n        sum=0; \r\n    }\r\n        \r\n        \r\n    \r\n    // Proceed with the bank's transaction\r\n    function proceedTransfer() public payable onlyOwner{\r\n        if(validity){\r\n            seller.transfer(sum);\r\n        } else {\r\n            owner.transfer(sum); \r\n        }\r\n        sum=0; \r\n        selfdestruct(owner);\r\n    }\r\n    \r\n    // Setters restricted only to Owner\r\n    function setSeller(address payable  _seller) public onlyOwner {\r\n        seller = _seller;\r\n    }\r\n    \r\n    function setInstitution(address _institution) public onlyOwner{\r\n        institution = _institution;\r\n    }\r\n     \r\n    \r\n}\r\n\r\n\r\n",
  "sourcePath": "C:/Users/andre/Documents/Program Projects/verity/contracts/Verity.sol",
  "compiler": {
    "name": "solc",
    "version": "0.5.12+commit.7709ece9.Emscripten.clang"
  },
  "schemaVersion": "3.0.19",
  "updatedAt": "2019-12-01T00:55:48.691Z",
  "networkType": "ethereum",
  "devdoc": {
    "methods": {}
  },
  "userdoc": {
    "methods": {}
  }
}